{
  "_format": "hh-sol-artifact-1",
  "contractName": "Voting",
  "sourceName": "contracts/VotingSystem.sol",
  "abi": [
    {
      "inputs": [
        {
          "internalType": "string[]",
          "name": "_candidateNames",
          "type": "string[]"
        },
        {
          "internalType": "uint256",
          "name": "_durationInMinutes",
          "type": "uint256"
        }
      ],
      "stateMutability": "nonpayable",
      "type": "constructor"
    },
    {
      "inputs": [
        {
          "internalType": "string",
          "name": "_name",
          "type": "string"
        }
      ],
      "name": "addCandidate",
      "outputs": [],
      "stateMutability": "nonpayable",
      "type": "function"
    },
    {
      "inputs": [
        {
          "internalType": "uint256",
          "name": "",
          "type": "uint256"
        }
      ],
      "name": "candidates",
      "outputs": [
        {
          "internalType": "string",
          "name": "name",
          "type": "string"
        },
        {
          "internalType": "uint256",
          "name": "voteCount",
          "type": "uint256"
        }
      ],
      "stateMutability": "view",
      "type": "function"
    },
    {
      "inputs": [],
      "name": "getAllVotesOfCandiates",
      "outputs": [
        {
          "components": [
            {
              "internalType": "string",
              "name": "name",
              "type": "string"
            },
            {
              "internalType": "uint256",
              "name": "voteCount",
              "type": "uint256"
            }
          ],
          "internalType": "struct Voting.Candidate[]",
          "name": "",
          "type": "tuple[]"
        }
      ],
      "stateMutability": "view",
      "type": "function"
    },
    {
      "inputs": [],
      "name": "getRemainingTime",
      "outputs": [
        {
          "internalType": "uint256",
          "name": "",
          "type": "uint256"
        }
      ],
      "stateMutability": "view",
      "type": "function"
    },
    {
      "inputs": [],
      "name": "getVotingStatus",
      "outputs": [
        {
          "internalType": "bool",
          "name": "",
          "type": "bool"
        }
      ],
      "stateMutability": "view",
      "type": "function"
    },
    {
      "inputs": [
        {
          "internalType": "uint256",
          "name": "_candidateIndex",
          "type": "uint256"
        }
      ],
      "name": "vote",
      "outputs": [],
      "stateMutability": "nonpayable",
      "type": "function"
    },
    {
      "inputs": [
        {
          "internalType": "address",
          "name": "",
          "type": "address"
        }
      ],
      "name": "voters",
      "outputs": [
        {
          "internalType": "bool",
          "name": "",
          "type": "bool"
        }
      ],
      "stateMutability": "view",
      "type": "function"
    },
    {
      "inputs": [],
      "name": "votingEnd",
      "outputs": [
        {
          "internalType": "uint256",
          "name": "",
          "type": "uint256"
        }
      ],
      "stateMutability": "view",
      "type": "function"
    },
    {
      "inputs": [],
      "name": "votingStart",
      "outputs": [
        {
          "internalType": "uint256",
          "name": "",
          "type": "uint256"
        }
      ],
      "stateMutability": "view",
      "type": "function"
    }
  ],
  "bytecode": "0x60806040523480156200001157600080fd5b5060405162000d6b38038062000d6b833981016040819052620000349162000145565b60005b8251811015620000c0576000604051806040016040528085848151811062000063576200006362000290565b602090810291909101810151825260009181018290528354600181018555938252902081519192600202019081906200009d908262000335565b506020820151816001015550508080620000b79062000417565b91505062000037565b50600180546001600160a01b0319163317905542600355620000e481603c62000433565b620000f0904262000453565b60045550620004699050565b634e487b7160e01b600052604160045260246000fd5b604051601f8201601f191681016001600160401b03811182821017156200013d576200013d620000fc565b604052919050565b60008060408084860312156200015a57600080fd5b83516001600160401b03808211156200017257600080fd5b8186019150601f87818401126200018857600080fd5b82516020838211156200019f576200019f620000fc565b8160051b620001b082820162000112565b928352858101820192828101908c851115620001cb57600080fd5b83880192505b848310156200027b57825187811115620001eb5760008081fd5b8801603f81018e13620001fe5760008081fd5b8481015188811115620002155762000215620000fc565b62000228818901601f1916870162000112565b8181528f8c8385010111156200023e5760008081fd5b60005b828110156200025e578381018d0151828201890152870162000241565b5060009181018701919091528352509183019190830190620001d1565b9a90920151999b999a50505050505050505050565b634e487b7160e01b600052603260045260246000fd5b600181811c90821680620002bb57607f821691505b602082108103620002dc57634e487b7160e01b600052602260045260246000fd5b50919050565b601f8211156200033057600081815260208120601f850160051c810160208610156200030b5750805b601f850160051c820191505b818110156200032c5782815560010162000317565b5050505b505050565b81516001600160401b03811115620003515762000351620000fc565b6200036981620003628454620002a6565b84620002e2565b602080601f831160018114620003a15760008415620003885750858301515b600019600386901b1c1916600185901b1785556200032c565b600085815260208120601f198616915b82811015620003d257888601518255948401946001909101908401620003b1565b5085821015620003f15787850151600019600388901b60f8161c191681555b5050505050600190811b01905550565b634e487b7160e01b600052601160045260246000fd5b6000600182016200042c576200042c62000401565b5060010190565b80820281158282048414176200044d576200044d62000401565b92915050565b808201808211156200044d576200044d62000401565b6108f280620004796000396000f3fe608060405234801561001057600080fd5b50600436106100935760003560e01c80634d6bda5f116100665780634d6bda5f146100fd578063581c281c1461011257806385a386351461012a578063a3ec138d14610133578063efb98bcf1461015657600080fd5b80630121b93f14610098578063101158af146100ad5780633477ee2e146100c9578063462e91ec146100ea575b600080fd5b6100ab6100a6366004610527565b61015e565b005b6100b660035481565b6040519081526020015b60405180910390f35b6100dc6100d7366004610527565b610267565b6040516100c0929190610586565b6100ab6100f83660046105be565b610323565b6101056103a1565b6040516100c0919061066f565b61011a61049c565b60405190151581526020016100c0565b6100b660045481565b61011a6101413660046106e5565b60026020526000908152604090205460ff1681565b6100b66104b6565b3360009081526002602052604090205460ff16156101c35760405162461bcd60e51b815260206004820152601760248201527f596f75206861766520616c726561647920766f7465642e00000000000000000060448201526064015b60405180910390fd5b60005481106102145760405162461bcd60e51b815260206004820152601860248201527f496e76616c69642063616e64696461746520696e6465782e000000000000000060448201526064016101ba565b6000818154811061022757610227610715565b60009182526020822060016002909202010180549161024583610741565b9091555050336000908152600260205260409020805460ff1916600117905550565b6000818154811061027757600080fd5b906000526020600020906002020160009150905080600001805461029a9061075a565b80601f01602080910402602001604051908101604052809291908181526020018280546102c69061075a565b80156103135780601f106102e857610100808354040283529160200191610313565b820191906000526020600020905b8154815290600101906020018083116102f657829003601f168201915b5050505050908060010154905082565b6001546001600160a01b0316331461033a57600080fd5b604080518082019091528181526000602082018190528054600181018255908052815160029091027f290decd9548b62a8d60345a988386fc84ba6bc95484008f6362f93160ef3e5630190819061039190826107e3565b5060208201518160010155505050565b60606000805480602002602001604051908101604052809291908181526020016000905b8282101561049357838290600052602060002090600202016040518060400160405290816000820180546103f89061075a565b80601f01602080910402602001604051908101604052809291908181526020018280546104249061075a565b80156104715780601f1061044657610100808354040283529160200191610471565b820191906000526020600020905b81548152906001019060200180831161045457829003601f168201915b50505050508152602001600182015481525050815260200190600101906103c5565b50505050905090565b600060035442101580156104b1575060045442105b905090565b600060035442101561050a5760405162461bcd60e51b815260206004820152601b60248201527f566f74696e6720686173206e6f742073746172746564207965742e000000000060448201526064016101ba565b60045442106105195750600090565b426004546104b191906108a3565b60006020828403121561053957600080fd5b5035919050565b6000815180845260005b818110156105665760208185018101518683018201520161054a565b506000602082860101526020601f19601f83011685010191505092915050565b6040815260006105996040830185610540565b90508260208301529392505050565b634e487b7160e01b600052604160045260246000fd5b6000602082840312156105d057600080fd5b813567ffffffffffffffff808211156105e857600080fd5b818401915084601f8301126105fc57600080fd5b81358181111561060e5761060e6105a8565b604051601f8201601f19908116603f01168101908382118183101715610636576106366105a8565b8160405282815287602084870101111561064f57600080fd5b826020860160208301376000928101602001929092525095945050505050565b60006020808301818452808551808352604092508286019150828160051b87010184880160005b838110156106d757888303603f19018552815180518785526106ba88860182610540565b918901519489019490945294870194925090860190600101610696565b509098975050505050505050565b6000602082840312156106f757600080fd5b81356001600160a01b038116811461070e57600080fd5b9392505050565b634e487b7160e01b600052603260045260246000fd5b634e487b7160e01b600052601160045260246000fd5b6000600182016107535761075361072b565b5060010190565b600181811c9082168061076e57607f821691505b60208210810361078e57634e487b7160e01b600052602260045260246000fd5b50919050565b601f8211156107de57600081815260208120601f850160051c810160208610156107bb5750805b601f850160051c820191505b818110156107da578281556001016107c7565b5050505b505050565b815167ffffffffffffffff8111156107fd576107fd6105a8565b6108118161080b845461075a565b84610794565b602080601f831160018114610846576000841561082e5750858301515b600019600386901b1c1916600185901b1785556107da565b600085815260208120601f198616915b8281101561087557888601518255948401946001909101908401610856565b50858210156108935787850151600019600388901b60f8161c191681555b5050505050600190811b01905550565b818103818111156108b6576108b661072b565b9291505056fea2646970667358221220ac529449a431b29893020dcfbfece17c796e82d67cd6754139b8e444d826186864736f6c63430008110033",
  "linkReferences": {},
  "deployedLinkReferences": {}
}