{"contracts/VotingSystem.sol":{"Voting":{"abi":[{"inputs":[{"internalType":"string[]","name":"_candidateNames","type":"string[]"},{"internalType":"uint256","name":"_durationInMinutes","type":"uint256"}],"stateMutability":"nonpayable","type":"constructor"},{"inputs":[{"internalType":"string","name":"_name","type":"string"}],"name":"addCandidate","outputs":[],"stateMutability":"nonpayable","type":"function"},{"inputs":[{"internalType":"uint256","name":"","type":"uint256"}],"name":"candidates","outputs":[{"internalType":"string","name":"name","type":"string"},{"internalType":"uint256","name":"voteCount","type":"uint256"}],"stateMutability":"view","type":"function"},{"inputs":[],"name":"getAllVotesOfCandiates","outputs":[{"components":[{"internalType":"string","name":"name","type":"string"},{"internalType":"uint256","name":"voteCount","type":"uint256"}],"internalType":"struct Voting.Candidate[]","name":"","type":"tuple[]"}],"stateMutability":"view","type":"function"},{"inputs":[],"name":"getRemainingTime","outputs":[{"internalType":"uint256","name":"","type":"uint256"}],"stateMutability":"view","type":"function"},{"inputs":[],"name":"getVotingStatus","outputs":[{"internalType":"bool","name":"","type":"bool"}],"stateMutability":"view","type":"function"},{"inputs":[{"internalType":"uint256","name":"_candidateIndex","type":"uint256"}],"name":"vote","outputs":[],"stateMutability":"nonpayable","type":"function"},{"inputs":[{"internalType":"address","name":"","type":"address"}],"name":"voters","outputs":[{"internalType":"bool","name":"","type":"bool"}],"stateMutability":"view","type":"function"},{"inputs":[],"name":"votingEnd","outputs":[{"internalType":"uint256","name":"","type":"uint256"}],"stateMutability":"view","type":"function"},{"inputs":[],"name":"votingStart","outputs":[{"internalType":"uint256","name":"","type":"uint256"}],"stateMutability":"view","type":"function"}],"evm":{"bytecode":{"linkReferences":{},"object":"60806040523480156200001157600080fd5b5060405162000d6b38038062000d6b833981016040819052620000349162000145565b60005b8251811015620000c0576000604051806040016040528085848151811062000063576200006362000290565b602090810291909101810151825260009181018290528354600181018555938252902081519192600202019081906200009d908262000335565b506020820151816001015550508080620000b79062000417565b91505062000037565b50600180546001600160a01b0319163317905542600355620000e481603c62000433565b620000f0904262000453565b60045550620004699050565b634e487b7160e01b600052604160045260246000fd5b604051601f8201601f191681016001600160401b03811182821017156200013d576200013d620000fc565b604052919050565b60008060408084860312156200015a57600080fd5b83516001600160401b03808211156200017257600080fd5b8186019150601f87818401126200018857600080fd5b82516020838211156200019f576200019f620000fc565b8160051b620001b082820162000112565b928352858101820192828101908c851115620001cb57600080fd5b83880192505b848310156200027b57825187811115620001eb5760008081fd5b8801603f81018e13620001fe5760008081fd5b8481015188811115620002155762000215620000fc565b62000228818901601f1916870162000112565b8181528f8c8385010111156200023e5760008081fd5b60005b828110156200025e578381018d0151828201890152870162000241565b5060009181018701919091528352509183019190830190620001d1565b9a90920151999b999a50505050505050505050565b634e487b7160e01b600052603260045260246000fd5b600181811c90821680620002bb57607f821691505b602082108103620002dc57634e487b7160e01b600052602260045260246000fd5b50919050565b601f8211156200033057600081815260208120601f850160051c810160208610156200030b5750805b601f850160051c820191505b818110156200032c5782815560010162000317565b5050505b505050565b81516001600160401b03811115620003515762000351620000fc565b6200036981620003628454620002a6565b84620002e2565b602080601f831160018114620003a15760008415620003885750858301515b600019600386901b1c1916600185901b1785556200032c565b600085815260208120601f198616915b82811015620003d257888601518255948401946001909101908401620003b1565b5085821015620003f15787850151600019600388901b60f8161c191681555b5050505050600190811b01905550565b634e487b7160e01b600052601160045260246000fd5b6000600182016200042c576200042c62000401565b5060010190565b80820281158282048414176200044d576200044d62000401565b92915050565b808201808211156200044d576200044d62000401565b6108f280620004796000396000f3fe608060405234801561001057600080fd5b50600436106100935760003560e01c80634d6bda5f116100665780634d6bda5f146100fd578063581c281c1461011257806385a386351461012a578063a3ec138d14610133578063efb98bcf1461015657600080fd5b80630121b93f14610098578063101158af146100ad5780633477ee2e146100c9578063462e91ec146100ea575b600080fd5b6100ab6100a6366004610527565b61015e565b005b6100b660035481565b6040519081526020015b60405180910390f35b6100dc6100d7366004610527565b610267565b6040516100c0929190610586565b6100ab6100f83660046105be565b610323565b6101056103a1565b6040516100c0919061066f565b61011a61049c565b60405190151581526020016100c0565b6100b660045481565b61011a6101413660046106e5565b60026020526000908152604090205460ff1681565b6100b66104b6565b3360009081526002602052604090205460ff16156101c35760405162461bcd60e51b815260206004820152601760248201527f596f75206861766520616c726561647920766f7465642e00000000000000000060448201526064015b60405180910390fd5b60005481106102145760405162461bcd60e51b815260206004820152601860248201527f496e76616c69642063616e64696461746520696e6465782e000000000000000060448201526064016101ba565b6000818154811061022757610227610715565b60009182526020822060016002909202010180549161024583610741565b9091555050336000908152600260205260409020805460ff1916600117905550565b6000818154811061027757600080fd5b906000526020600020906002020160009150905080600001805461029a9061075a565b80601f01602080910402602001604051908101604052809291908181526020018280546102c69061075a565b80156103135780601f106102e857610100808354040283529160200191610313565b820191906000526020600020905b8154815290600101906020018083116102f657829003601f168201915b5050505050908060010154905082565b6001546001600160a01b0316331461033a57600080fd5b604080518082019091528181526000602082018190528054600181018255908052815160029091027f290decd9548b62a8d60345a988386fc84ba6bc95484008f6362f93160ef3e5630190819061039190826107e3565b5060208201518160010155505050565b60606000805480602002602001604051908101604052809291908181526020016000905b8282101561049357838290600052602060002090600202016040518060400160405290816000820180546103f89061075a565b80601f01602080910402602001604051908101604052809291908181526020018280546104249061075a565b80156104715780601f1061044657610100808354040283529160200191610471565b820191906000526020600020905b81548152906001019060200180831161045457829003601f168201915b50505050508152602001600182015481525050815260200190600101906103c5565b50505050905090565b600060035442101580156104b1575060045442105b905090565b600060035442101561050a5760405162461bcd60e51b815260206004820152601b60248201527f566f74696e6720686173206e6f742073746172746564207965742e000000000060448201526064016101ba565b60045442106105195750600090565b426004546104b191906108a3565b60006020828403121561053957600080fd5b5035919050565b6000815180845260005b818110156105665760208185018101518683018201520161054a565b506000602082860101526020601f19601f83011685010191505092915050565b6040815260006105996040830185610540565b90508260208301529392505050565b634e487b7160e01b600052604160045260246000fd5b6000602082840312156105d057600080fd5b813567ffffffffffffffff808211156105e857600080fd5b818401915084601f8301126105fc57600080fd5b81358181111561060e5761060e6105a8565b604051601f8201601f19908116603f01168101908382118183101715610636576106366105a8565b8160405282815287602084870101111561064f57600080fd5b826020860160208301376000928101602001929092525095945050505050565b60006020808301818452808551808352604092508286019150828160051b87010184880160005b838110156106d757888303603f19018552815180518785526106ba88860182610540565b918901519489019490945294870194925090860190600101610696565b509098975050505050505050565b6000602082840312156106f757600080fd5b81356001600160a01b038116811461070e57600080fd5b9392505050565b634e487b7160e01b600052603260045260246000fd5b634e487b7160e01b600052601160045260246000fd5b6000600182016107535761075361072b565b5060010190565b600181811c9082168061076e57607f821691505b60208210810361078e57634e487b7160e01b600052602260045260246000fd5b50919050565b601f8211156107de57600081815260208120601f850160051c810160208610156107bb5750805b601f850160051c820191505b818110156107da578281556001016107c7565b5050505b505050565b815167ffffffffffffffff8111156107fd576107fd6105a8565b6108118161080b845461075a565b84610794565b602080601f831160018114610846576000841561082e5750858301515b600019600386901b1c1916600185901b1785556107da565b600085815260208120601f198616915b8281101561087557888601518255948401946001909101908401610856565b50858210156108935787850151600019600388901b60f8161c191681555b5050505050600190811b01905550565b818103818111156108b6576108b661072b565b9291505056fea2646970667358221220ac529449a431b29893020dcfbfece17c796e82d67cd6754139b8e444d826186864736f6c63430008110033","opcodes":"PUSH1 0x80 PUSH1 0x40 MSTORE CALLVALUE DUP1 ISZERO PUSH3 0x11 JUMPI PUSH1 0x0 DUP1 REVERT JUMPDEST POP PUSH1 0x40 MLOAD PUSH3 0xD6B CODESIZE SUB DUP1 PUSH3 0xD6B DUP4 CODECOPY DUP2 ADD PUSH1 0x40 DUP2 SWAP1 MSTORE PUSH3 0x34 SWAP2 PUSH3 0x145 JUMP JUMPDEST PUSH1 0x0 JUMPDEST DUP3 MLOAD DUP2 LT ISZERO PUSH3 0xC0 JUMPI PUSH1 0x0 PUSH1 0x40 MLOAD DUP1 PUSH1 0x40 ADD PUSH1 0x40 MSTORE DUP1 DUP6 DUP5 DUP2 MLOAD DUP2 LT PUSH3 0x63 JUMPI PUSH3 0x63 PUSH3 0x290 JUMP JUMPDEST PUSH1 0x20 SWAP1 DUP2 MUL SWAP2 SWAP1 SWAP2 ADD DUP2 ADD MLOAD DUP3 MSTORE PUSH1 0x0 SWAP2 DUP2 ADD DUP3 SWAP1 MSTORE DUP4 SLOAD PUSH1 0x1 DUP2 ADD DUP6 SSTORE SWAP4 DUP3 MSTORE SWAP1 KECCAK256 DUP2 MLOAD SWAP2 SWAP3 PUSH1 0x2 MUL ADD SWAP1 DUP2 SWAP1 PUSH3 0x9D SWAP1 DUP3 PUSH3 0x335 JUMP JUMPDEST POP PUSH1 0x20 DUP3 ADD MLOAD DUP2 PUSH1 0x1 ADD SSTORE POP POP DUP1 DUP1 PUSH3 0xB7 SWAP1 PUSH3 0x417 JUMP JUMPDEST SWAP2 POP POP PUSH3 0x37 JUMP JUMPDEST POP PUSH1 0x1 DUP1 SLOAD PUSH1 0x1 PUSH1 0x1 PUSH1 0xA0 SHL SUB NOT AND CALLER OR SWAP1 SSTORE TIMESTAMP PUSH1 0x3 SSTORE PUSH3 0xE4 DUP2 PUSH1 0x3C PUSH3 0x433 JUMP JUMPDEST PUSH3 0xF0 SWAP1 TIMESTAMP PUSH3 0x453 JUMP JUMPDEST PUSH1 0x4 SSTORE POP PUSH3 0x469 SWAP1 POP JUMP JUMPDEST PUSH4 0x4E487B71 PUSH1 0xE0 SHL PUSH1 0x0 MSTORE PUSH1 0x41 PUSH1 0x4 MSTORE PUSH1 0x24 PUSH1 0x0 REVERT JUMPDEST PUSH1 0x40 MLOAD PUSH1 0x1F DUP3 ADD PUSH1 0x1F NOT AND DUP2 ADD PUSH1 0x1 PUSH1 0x1 PUSH1 0x40 SHL SUB DUP2 GT DUP3 DUP3 LT OR ISZERO PUSH3 0x13D JUMPI PUSH3 0x13D PUSH3 0xFC JUMP JUMPDEST PUSH1 0x40 MSTORE SWAP2 SWAP1 POP JUMP JUMPDEST PUSH1 0x0 DUP1 PUSH1 0x40 DUP1 DUP5 DUP7 SUB SLT ISZERO PUSH3 0x15A JUMPI PUSH1 0x0 DUP1 REVERT JUMPDEST DUP4 MLOAD PUSH1 0x1 PUSH1 0x1 PUSH1 0x40 SHL SUB DUP1 DUP3 GT ISZERO PUSH3 0x172 JUMPI PUSH1 0x0 DUP1 REVERT JUMPDEST DUP2 DUP7 ADD SWAP2 POP PUSH1 0x1F DUP8 DUP2 DUP5 ADD SLT PUSH3 0x188 JUMPI PUSH1 0x0 DUP1 REVERT JUMPDEST DUP3 MLOAD PUSH1 0x20 DUP4 DUP3 GT ISZERO PUSH3 0x19F JUMPI PUSH3 0x19F PUSH3 0xFC JUMP JUMPDEST DUP2 PUSH1 0x5 SHL PUSH3 0x1B0 DUP3 DUP3 ADD PUSH3 0x112 JUMP JUMPDEST SWAP3 DUP4 MSTORE DUP6 DUP2 ADD DUP3 ADD SWAP3 DUP3 DUP2 ADD SWAP1 DUP13 DUP6 GT ISZERO PUSH3 0x1CB JUMPI PUSH1 0x0 DUP1 REVERT JUMPDEST DUP4 DUP9 ADD SWAP3 POP JUMPDEST DUP5 DUP4 LT ISZERO PUSH3 0x27B JUMPI DUP3 MLOAD DUP8 DUP2 GT ISZERO PUSH3 0x1EB JUMPI PUSH1 0x0 DUP1 DUP2 REVERT JUMPDEST DUP9 ADD PUSH1 0x3F DUP2 ADD DUP15 SGT PUSH3 0x1FE JUMPI PUSH1 0x0 DUP1 DUP2 REVERT JUMPDEST DUP5 DUP2 ADD MLOAD DUP9 DUP2 GT ISZERO PUSH3 0x215 JUMPI PUSH3 0x215 PUSH3 0xFC JUMP JUMPDEST PUSH3 0x228 DUP2 DUP10 ADD PUSH1 0x1F NOT AND DUP8 ADD PUSH3 0x112 JUMP JUMPDEST DUP2 DUP2 MSTORE DUP16 DUP13 DUP4 DUP6 ADD ADD GT ISZERO PUSH3 0x23E JUMPI PUSH1 0x0 DUP1 DUP2 REVERT JUMPDEST PUSH1 0x0 JUMPDEST DUP3 DUP2 LT ISZERO PUSH3 0x25E JUMPI DUP4 DUP2 ADD DUP14 ADD MLOAD DUP3 DUP3 ADD DUP10 ADD MSTORE DUP8 ADD PUSH3 0x241 JUMP JUMPDEST POP PUSH1 0x0 SWAP2 DUP2 ADD DUP8 ADD SWAP2 SWAP1 SWAP2 MSTORE DUP4 MSTORE POP SWAP2 DUP4 ADD SWAP2 SWAP1 DUP4 ADD SWAP1 PUSH3 0x1D1 JUMP JUMPDEST SWAP11 SWAP1 SWAP3 ADD MLOAD SWAP10 SWAP12 SWAP10 SWAP11 POP POP POP POP POP POP POP POP POP POP JUMP JUMPDEST PUSH4 0x4E487B71 PUSH1 0xE0 SHL PUSH1 0x0 MSTORE PUSH1 0x32 PUSH1 0x4 MSTORE PUSH1 0x24 PUSH1 0x0 REVERT JUMPDEST PUSH1 0x1 DUP2 DUP2 SHR SWAP1 DUP3 AND DUP1 PUSH3 0x2BB JUMPI PUSH1 0x7F DUP3 AND SWAP2 POP JUMPDEST PUSH1 0x20 DUP3 LT DUP2 SUB PUSH3 0x2DC JUMPI PUSH4 0x4E487B71 PUSH1 0xE0 SHL PUSH1 0x0 MSTORE PUSH1 0x22 PUSH1 0x4 MSTORE PUSH1 0x24 PUSH1 0x0 REVERT JUMPDEST POP SWAP2 SWAP1 POP JUMP JUMPDEST PUSH1 0x1F DUP3 GT ISZERO PUSH3 0x330 JUMPI PUSH1 0x0 DUP2 DUP2 MSTORE PUSH1 0x20 DUP2 KECCAK256 PUSH1 0x1F DUP6 ADD PUSH1 0x5 SHR DUP2 ADD PUSH1 0x20 DUP7 LT ISZERO PUSH3 0x30B JUMPI POP DUP1 JUMPDEST PUSH1 0x1F DUP6 ADD PUSH1 0x5 SHR DUP3 ADD SWAP2 POP JUMPDEST DUP2 DUP2 LT ISZERO PUSH3 0x32C JUMPI DUP3 DUP2 SSTORE PUSH1 0x1 ADD PUSH3 0x317 JUMP JUMPDEST POP POP POP JUMPDEST POP POP POP JUMP JUMPDEST DUP2 MLOAD PUSH1 0x1 PUSH1 0x1 PUSH1 0x40 SHL SUB DUP2 GT ISZERO PUSH3 0x351 JUMPI PUSH3 0x351 PUSH3 0xFC JUMP JUMPDEST PUSH3 0x369 DUP2 PUSH3 0x362 DUP5 SLOAD PUSH3 0x2A6 JUMP JUMPDEST DUP5 PUSH3 0x2E2 JUMP JUMPDEST PUSH1 0x20 DUP1 PUSH1 0x1F DUP4 GT PUSH1 0x1 DUP2 EQ PUSH3 0x3A1 JUMPI PUSH1 0x0 DUP5 ISZERO PUSH3 0x388 JUMPI POP DUP6 DUP4 ADD MLOAD JUMPDEST PUSH1 0x0 NOT PUSH1 0x3 DUP7 SWAP1 SHL SHR NOT AND PUSH1 0x1 DUP6 SWAP1 SHL OR DUP6 SSTORE PUSH3 0x32C JUMP JUMPDEST PUSH1 0x0 DUP6 DUP2 MSTORE PUSH1 0x20 DUP2 KECCAK256 PUSH1 0x1F NOT DUP7 AND SWAP2 JUMPDEST DUP3 DUP2 LT ISZERO PUSH3 0x3D2 JUMPI DUP9 DUP7 ADD MLOAD DUP3 SSTORE SWAP5 DUP5 ADD SWAP5 PUSH1 0x1 SWAP1 SWAP2 ADD SWAP1 DUP5 ADD PUSH3 0x3B1 JUMP JUMPDEST POP DUP6 DUP3 LT ISZERO PUSH3 0x3F1 JUMPI DUP8 DUP6 ADD MLOAD PUSH1 0x0 NOT PUSH1 0x3 DUP9 SWAP1 SHL PUSH1 0xF8 AND SHR NOT AND DUP2 SSTORE JUMPDEST POP POP POP POP POP PUSH1 0x1 SWAP1 DUP2 SHL ADD SWAP1 SSTORE POP JUMP JUMPDEST PUSH4 0x4E487B71 PUSH1 0xE0 SHL PUSH1 0x0 MSTORE PUSH1 0x11 PUSH1 0x4 MSTORE PUSH1 0x24 PUSH1 0x0 REVERT JUMPDEST PUSH1 0x0 PUSH1 0x1 DUP3 ADD PUSH3 0x42C JUMPI PUSH3 0x42C PUSH3 0x401 JUMP JUMPDEST POP PUSH1 0x1 ADD SWAP1 JUMP JUMPDEST DUP1 DUP3 MUL DUP2 ISZERO DUP3 DUP3 DIV DUP5 EQ OR PUSH3 0x44D JUMPI PUSH3 0x44D PUSH3 0x401 JUMP JUMPDEST SWAP3 SWAP2 POP POP JUMP JUMPDEST DUP1 DUP3 ADD DUP1 DUP3 GT ISZERO PUSH3 0x44D JUMPI PUSH3 0x44D PUSH3 0x401 JUMP JUMPDEST PUSH2 0x8F2 DUP1 PUSH3 0x479 PUSH1 0x0 CODECOPY PUSH1 0x0 RETURN INVALID PUSH1 0x80 PUSH1 0x40 MSTORE CALLVALUE DUP1 ISZERO PUSH2 0x10 JUMPI PUSH1 0x0 DUP1 REVERT JUMPDEST POP PUSH1 0x4 CALLDATASIZE LT PUSH2 0x93 JUMPI PUSH1 0x0 CALLDATALOAD PUSH1 0xE0 SHR DUP1 PUSH4 0x4D6BDA5F GT PUSH2 0x66 JUMPI DUP1 PUSH4 0x4D6BDA5F EQ PUSH2 0xFD JUMPI DUP1 PUSH4 0x581C281C EQ PUSH2 0x112 JUMPI DUP1 PUSH4 0x85A38635 EQ PUSH2 0x12A JUMPI DUP1 PUSH4 0xA3EC138D EQ PUSH2 0x133 JUMPI DUP1 PUSH4 0xEFB98BCF EQ PUSH2 0x156 JUMPI PUSH1 0x0 DUP1 REVERT JUMPDEST DUP1 PUSH4 0x121B93F EQ PUSH2 0x98 JUMPI DUP1 PUSH4 0x101158AF EQ PUSH2 0xAD JUMPI DUP1 PUSH4 0x3477EE2E EQ PUSH2 0xC9 JUMPI DUP1 PUSH4 0x462E91EC EQ PUSH2 0xEA JUMPI JUMPDEST PUSH1 0x0 DUP1 REVERT JUMPDEST PUSH2 0xAB PUSH2 0xA6 CALLDATASIZE PUSH1 0x4 PUSH2 0x527 JUMP JUMPDEST PUSH2 0x15E JUMP JUMPDEST STOP JUMPDEST PUSH2 0xB6 PUSH1 0x3 SLOAD DUP2 JUMP JUMPDEST PUSH1 0x40 MLOAD SWAP1 DUP2 MSTORE PUSH1 0x20 ADD JUMPDEST PUSH1 0x40 MLOAD DUP1 SWAP2 SUB SWAP1 RETURN JUMPDEST PUSH2 0xDC PUSH2 0xD7 CALLDATASIZE PUSH1 0x4 PUSH2 0x527 JUMP JUMPDEST PUSH2 0x267 JUMP JUMPDEST PUSH1 0x40 MLOAD PUSH2 0xC0 SWAP3 SWAP2 SWAP1 PUSH2 0x586 JUMP JUMPDEST PUSH2 0xAB PUSH2 0xF8 CALLDATASIZE PUSH1 0x4 PUSH2 0x5BE JUMP JUMPDEST PUSH2 0x323 JUMP JUMPDEST PUSH2 0x105 PUSH2 0x3A1 JUMP JUMPDEST PUSH1 0x40 MLOAD PUSH2 0xC0 SWAP2 SWAP1 PUSH2 0x66F JUMP JUMPDEST PUSH2 0x11A PUSH2 0x49C JUMP JUMPDEST PUSH1 0x40 MLOAD SWAP1 ISZERO ISZERO DUP2 MSTORE PUSH1 0x20 ADD PUSH2 0xC0 JUMP JUMPDEST PUSH2 0xB6 PUSH1 0x4 SLOAD DUP2 JUMP JUMPDEST PUSH2 0x11A PUSH2 0x141 CALLDATASIZE PUSH1 0x4 PUSH2 0x6E5 JUMP JUMPDEST PUSH1 0x2 PUSH1 0x20 MSTORE PUSH1 0x0 SWAP1 DUP2 MSTORE PUSH1 0x40 SWAP1 KECCAK256 SLOAD PUSH1 0xFF AND DUP2 JUMP JUMPDEST PUSH2 0xB6 PUSH2 0x4B6 JUMP JUMPDEST CALLER PUSH1 0x0 SWAP1 DUP2 MSTORE PUSH1 0x2 PUSH1 0x20 MSTORE PUSH1 0x40 SWAP1 KECCAK256 SLOAD PUSH1 0xFF AND ISZERO PUSH2 0x1C3 JUMPI PUSH1 0x40 MLOAD PUSH3 0x461BCD PUSH1 0xE5 SHL DUP2 MSTORE PUSH1 0x20 PUSH1 0x4 DUP3 ADD MSTORE PUSH1 0x17 PUSH1 0x24 DUP3 ADD MSTORE PUSH32 0x596F75206861766520616C726561647920766F7465642E000000000000000000 PUSH1 0x44 DUP3 ADD MSTORE PUSH1 0x64 ADD JUMPDEST PUSH1 0x40 MLOAD DUP1 SWAP2 SUB SWAP1 REVERT JUMPDEST PUSH1 0x0 SLOAD DUP2 LT PUSH2 0x214 JUMPI PUSH1 0x40 MLOAD PUSH3 0x461BCD PUSH1 0xE5 SHL DUP2 MSTORE PUSH1 0x20 PUSH1 0x4 DUP3 ADD MSTORE PUSH1 0x18 PUSH1 0x24 DUP3 ADD MSTORE PUSH32 0x496E76616C69642063616E64696461746520696E6465782E0000000000000000 PUSH1 0x44 DUP3 ADD MSTORE PUSH1 0x64 ADD PUSH2 0x1BA JUMP JUMPDEST PUSH1 0x0 DUP2 DUP2 SLOAD DUP2 LT PUSH2 0x227 JUMPI PUSH2 0x227 PUSH2 0x715 JUMP JUMPDEST PUSH1 0x0 SWAP2 DUP3 MSTORE PUSH1 0x20 DUP3 KECCAK256 PUSH1 0x1 PUSH1 0x2 SWAP1 SWAP3 MUL ADD ADD DUP1 SLOAD SWAP2 PUSH2 0x245 DUP4 PUSH2 0x741 JUMP JUMPDEST SWAP1 SWAP2 SSTORE POP POP CALLER PUSH1 0x0 SWAP1 DUP2 MSTORE PUSH1 0x2 PUSH1 0x20 MSTORE PUSH1 0x40 SWAP1 KECCAK256 DUP1 SLOAD PUSH1 0xFF NOT AND PUSH1 0x1 OR SWAP1 SSTORE POP JUMP JUMPDEST PUSH1 0x0 DUP2 DUP2 SLOAD DUP2 LT PUSH2 0x277 JUMPI PUSH1 0x0 DUP1 REVERT JUMPDEST SWAP1 PUSH1 0x0 MSTORE PUSH1 0x20 PUSH1 0x0 KECCAK256 SWAP1 PUSH1 0x2 MUL ADD PUSH1 0x0 SWAP2 POP SWAP1 POP DUP1 PUSH1 0x0 ADD DUP1 SLOAD PUSH2 0x29A SWAP1 PUSH2 0x75A JUMP JUMPDEST DUP1 PUSH1 0x1F ADD PUSH1 0x20 DUP1 SWAP2 DIV MUL PUSH1 0x20 ADD PUSH1 0x40 MLOAD SWAP1 DUP2 ADD PUSH1 0x40 MSTORE DUP1 SWAP3 SWAP2 SWAP1 DUP2 DUP2 MSTORE PUSH1 0x20 ADD DUP3 DUP1 SLOAD PUSH2 0x2C6 SWAP1 PUSH2 0x75A JUMP JUMPDEST DUP1 ISZERO PUSH2 0x313 JUMPI DUP1 PUSH1 0x1F LT PUSH2 0x2E8 JUMPI PUSH2 0x100 DUP1 DUP4 SLOAD DIV MUL DUP4 MSTORE SWAP2 PUSH1 0x20 ADD SWAP2 PUSH2 0x313 JUMP JUMPDEST DUP3 ADD SWAP2 SWAP1 PUSH1 0x0 MSTORE PUSH1 0x20 PUSH1 0x0 KECCAK256 SWAP1 JUMPDEST DUP2 SLOAD DUP2 MSTORE SWAP1 PUSH1 0x1 ADD SWAP1 PUSH1 0x20 ADD DUP1 DUP4 GT PUSH2 0x2F6 JUMPI DUP3 SWAP1 SUB PUSH1 0x1F AND DUP3 ADD SWAP2 JUMPDEST POP POP POP POP POP SWAP1 DUP1 PUSH1 0x1 ADD SLOAD SWAP1 POP DUP3 JUMP JUMPDEST PUSH1 0x1 SLOAD PUSH1 0x1 PUSH1 0x1 PUSH1 0xA0 SHL SUB AND CALLER EQ PUSH2 0x33A JUMPI PUSH1 0x0 DUP1 REVERT JUMPDEST PUSH1 0x40 DUP1 MLOAD DUP1 DUP3 ADD SWAP1 SWAP2 MSTORE DUP2 DUP2 MSTORE PUSH1 0x0 PUSH1 0x20 DUP3 ADD DUP2 SWAP1 MSTORE DUP1 SLOAD PUSH1 0x1 DUP2 ADD DUP3 SSTORE SWAP1 DUP1 MSTORE DUP2 MLOAD PUSH1 0x2 SWAP1 SWAP2 MUL PUSH32 0x290DECD9548B62A8D60345A988386FC84BA6BC95484008F6362F93160EF3E563 ADD SWAP1 DUP2 SWAP1 PUSH2 0x391 SWAP1 DUP3 PUSH2 0x7E3 JUMP JUMPDEST POP PUSH1 0x20 DUP3 ADD MLOAD DUP2 PUSH1 0x1 ADD SSTORE POP POP POP JUMP JUMPDEST PUSH1 0x60 PUSH1 0x0 DUP1 SLOAD DUP1 PUSH1 0x20 MUL PUSH1 0x20 ADD PUSH1 0x40 MLOAD SWAP1 DUP2 ADD PUSH1 0x40 MSTORE DUP1 SWAP3 SWAP2 SWAP1 DUP2 DUP2 MSTORE PUSH1 0x20 ADD PUSH1 0x0 SWAP1 JUMPDEST DUP3 DUP3 LT ISZERO PUSH2 0x493 JUMPI DUP4 DUP3 SWAP1 PUSH1 0x0 MSTORE PUSH1 0x20 PUSH1 0x0 KECCAK256 SWAP1 PUSH1 0x2 MUL ADD PUSH1 0x40 MLOAD DUP1 PUSH1 0x40 ADD PUSH1 0x40 MSTORE SWAP1 DUP2 PUSH1 0x0 DUP3 ADD DUP1 SLOAD PUSH2 0x3F8 SWAP1 PUSH2 0x75A JUMP JUMPDEST DUP1 PUSH1 0x1F ADD PUSH1 0x20 DUP1 SWAP2 DIV MUL PUSH1 0x20 ADD PUSH1 0x40 MLOAD SWAP1 DUP2 ADD PUSH1 0x40 MSTORE DUP1 SWAP3 SWAP2 SWAP1 DUP2 DUP2 MSTORE PUSH1 0x20 ADD DUP3 DUP1 SLOAD PUSH2 0x424 SWAP1 PUSH2 0x75A JUMP JUMPDEST DUP1 ISZERO PUSH2 0x471 JUMPI DUP1 PUSH1 0x1F LT PUSH2 0x446 JUMPI PUSH2 0x100 DUP1 DUP4 SLOAD DIV MUL DUP4 MSTORE SWAP2 PUSH1 0x20 ADD SWAP2 PUSH2 0x471 JUMP JUMPDEST DUP3 ADD SWAP2 SWAP1 PUSH1 0x0 MSTORE PUSH1 0x20 PUSH1 0x0 KECCAK256 SWAP1 JUMPDEST DUP2 SLOAD DUP2 MSTORE SWAP1 PUSH1 0x1 ADD SWAP1 PUSH1 0x20 ADD DUP1 DUP4 GT PUSH2 0x454 JUMPI DUP3 SWAP1 SUB PUSH1 0x1F AND DUP3 ADD SWAP2 JUMPDEST POP POP POP POP POP DUP2 MSTORE PUSH1 0x20 ADD PUSH1 0x1 DUP3 ADD SLOAD DUP2 MSTORE POP POP DUP2 MSTORE PUSH1 0x20 ADD SWAP1 PUSH1 0x1 ADD SWAP1 PUSH2 0x3C5 JUMP JUMPDEST POP POP POP POP SWAP1 POP SWAP1 JUMP JUMPDEST PUSH1 0x0 PUSH1 0x3 SLOAD TIMESTAMP LT ISZERO DUP1 ISZERO PUSH2 0x4B1 JUMPI POP PUSH1 0x4 SLOAD TIMESTAMP LT JUMPDEST SWAP1 POP SWAP1 JUMP JUMPDEST PUSH1 0x0 PUSH1 0x3 SLOAD TIMESTAMP LT ISZERO PUSH2 0x50A JUMPI PUSH1 0x40 MLOAD PUSH3 0x461BCD PUSH1 0xE5 SHL DUP2 MSTORE PUSH1 0x20 PUSH1 0x4 DUP3 ADD MSTORE PUSH1 0x1B PUSH1 0x24 DUP3 ADD MSTORE PUSH32 0x566F74696E6720686173206E6F742073746172746564207965742E0000000000 PUSH1 0x44 DUP3 ADD MSTORE PUSH1 0x64 ADD PUSH2 0x1BA JUMP JUMPDEST PUSH1 0x4 SLOAD TIMESTAMP LT PUSH2 0x519 JUMPI POP PUSH1 0x0 SWAP1 JUMP JUMPDEST TIMESTAMP PUSH1 0x4 SLOAD PUSH2 0x4B1 SWAP2 SWAP1 PUSH2 0x8A3 JUMP JUMPDEST PUSH1 0x0 PUSH1 0x20 DUP3 DUP5 SUB SLT ISZERO PUSH2 0x539 JUMPI PUSH1 0x0 DUP1 REVERT JUMPDEST POP CALLDATALOAD SWAP2 SWAP1 POP JUMP JUMPDEST PUSH1 0x0 DUP2 MLOAD DUP1 DUP5 MSTORE PUSH1 0x0 JUMPDEST DUP2 DUP2 LT ISZERO PUSH2 0x566 JUMPI PUSH1 0x20 DUP2 DUP6 ADD DUP2 ADD MLOAD DUP7 DUP4 ADD DUP3 ADD MSTORE ADD PUSH2 0x54A JUMP JUMPDEST POP PUSH1 0x0 PUSH1 0x20 DUP3 DUP7 ADD ADD MSTORE PUSH1 0x20 PUSH1 0x1F NOT PUSH1 0x1F DUP4 ADD AND DUP6 ADD ADD SWAP2 POP POP SWAP3 SWAP2 POP POP JUMP JUMPDEST PUSH1 0x40 DUP2 MSTORE PUSH1 0x0 PUSH2 0x599 PUSH1 0x40 DUP4 ADD DUP6 PUSH2 0x540 JUMP JUMPDEST SWAP1 POP DUP3 PUSH1 0x20 DUP4 ADD MSTORE SWAP4 SWAP3 POP POP POP JUMP JUMPDEST PUSH4 0x4E487B71 PUSH1 0xE0 SHL PUSH1 0x0 MSTORE PUSH1 0x41 PUSH1 0x4 MSTORE PUSH1 0x24 PUSH1 0x0 REVERT JUMPDEST PUSH1 0x0 PUSH1 0x20 DUP3 DUP5 SUB SLT ISZERO PUSH2 0x5D0 JUMPI PUSH1 0x0 DUP1 REVERT JUMPDEST DUP2 CALLDATALOAD PUSH8 0xFFFFFFFFFFFFFFFF DUP1 DUP3 GT ISZERO PUSH2 0x5E8 JUMPI PUSH1 0x0 DUP1 REVERT JUMPDEST DUP2 DUP5 ADD SWAP2 POP DUP5 PUSH1 0x1F DUP4 ADD SLT PUSH2 0x5FC JUMPI PUSH1 0x0 DUP1 REVERT JUMPDEST DUP2 CALLDATALOAD DUP2 DUP2 GT ISZERO PUSH2 0x60E JUMPI PUSH2 0x60E PUSH2 0x5A8 JUMP JUMPDEST PUSH1 0x40 MLOAD PUSH1 0x1F DUP3 ADD PUSH1 0x1F NOT SWAP1 DUP2 AND PUSH1 0x3F ADD AND DUP2 ADD SWAP1 DUP4 DUP3 GT DUP2 DUP4 LT OR ISZERO PUSH2 0x636 JUMPI PUSH2 0x636 PUSH2 0x5A8 JUMP JUMPDEST DUP2 PUSH1 0x40 MSTORE DUP3 DUP2 MSTORE DUP8 PUSH1 0x20 DUP5 DUP8 ADD ADD GT ISZERO PUSH2 0x64F JUMPI PUSH1 0x0 DUP1 REVERT JUMPDEST DUP3 PUSH1 0x20 DUP7 ADD PUSH1 0x20 DUP4 ADD CALLDATACOPY PUSH1 0x0 SWAP3 DUP2 ADD PUSH1 0x20 ADD SWAP3 SWAP1 SWAP3 MSTORE POP SWAP6 SWAP5 POP POP POP POP POP JUMP JUMPDEST PUSH1 0x0 PUSH1 0x20 DUP1 DUP4 ADD DUP2 DUP5 MSTORE DUP1 DUP6 MLOAD DUP1 DUP4 MSTORE PUSH1 0x40 SWAP3 POP DUP3 DUP7 ADD SWAP2 POP DUP3 DUP2 PUSH1 0x5 SHL DUP8 ADD ADD DUP5 DUP9 ADD PUSH1 0x0 JUMPDEST DUP4 DUP2 LT ISZERO PUSH2 0x6D7 JUMPI DUP9 DUP4 SUB PUSH1 0x3F NOT ADD DUP6 MSTORE DUP2 MLOAD DUP1 MLOAD DUP8 DUP6 MSTORE PUSH2 0x6BA DUP9 DUP7 ADD DUP3 PUSH2 0x540 JUMP JUMPDEST SWAP2 DUP10 ADD MLOAD SWAP5 DUP10 ADD SWAP5 SWAP1 SWAP5 MSTORE SWAP5 DUP8 ADD SWAP5 SWAP3 POP SWAP1 DUP7 ADD SWAP1 PUSH1 0x1 ADD PUSH2 0x696 JUMP JUMPDEST POP SWAP1 SWAP9 SWAP8 POP POP POP POP POP POP POP POP JUMP JUMPDEST PUSH1 0x0 PUSH1 0x20 DUP3 DUP5 SUB SLT ISZERO PUSH2 0x6F7 JUMPI PUSH1 0x0 DUP1 REVERT JUMPDEST DUP2 CALLDATALOAD PUSH1 0x1 PUSH1 0x1 PUSH1 0xA0 SHL SUB DUP2 AND DUP2 EQ PUSH2 0x70E JUMPI PUSH1 0x0 DUP1 REVERT JUMPDEST SWAP4 SWAP3 POP POP POP JUMP JUMPDEST PUSH4 0x4E487B71 PUSH1 0xE0 SHL PUSH1 0x0 MSTORE PUSH1 0x32 PUSH1 0x4 MSTORE PUSH1 0x24 PUSH1 0x0 REVERT JUMPDEST PUSH4 0x4E487B71 PUSH1 0xE0 SHL PUSH1 0x0 MSTORE PUSH1 0x11 PUSH1 0x4 MSTORE PUSH1 0x24 PUSH1 0x0 REVERT JUMPDEST PUSH1 0x0 PUSH1 0x1 DUP3 ADD PUSH2 0x753 JUMPI PUSH2 0x753 PUSH2 0x72B JUMP JUMPDEST POP PUSH1 0x1 ADD SWAP1 JUMP JUMPDEST PUSH1 0x1 DUP2 DUP2 SHR SWAP1 DUP3 AND DUP1 PUSH2 0x76E JUMPI PUSH1 0x7F DUP3 AND SWAP2 POP JUMPDEST PUSH1 0x20 DUP3 LT DUP2 SUB PUSH2 0x78E JUMPI PUSH4 0x4E487B71 PUSH1 0xE0 SHL PUSH1 0x0 MSTORE PUSH1 0x22 PUSH1 0x4 MSTORE PUSH1 0x24 PUSH1 0x0 REVERT JUMPDEST POP SWAP2 SWAP1 POP JUMP JUMPDEST PUSH1 0x1F DUP3 GT ISZERO PUSH2 0x7DE JUMPI PUSH1 0x0 DUP2 DUP2 MSTORE PUSH1 0x20 DUP2 KECCAK256 PUSH1 0x1F DUP6 ADD PUSH1 0x5 SHR DUP2 ADD PUSH1 0x20 DUP7 LT ISZERO PUSH2 0x7BB JUMPI POP DUP1 JUMPDEST PUSH1 0x1F DUP6 ADD PUSH1 0x5 SHR DUP3 ADD SWAP2 POP JUMPDEST DUP2 DUP2 LT ISZERO PUSH2 0x7DA JUMPI DUP3 DUP2 SSTORE PUSH1 0x1 ADD PUSH2 0x7C7 JUMP JUMPDEST POP POP POP JUMPDEST POP POP POP JUMP JUMPDEST DUP2 MLOAD PUSH8 0xFFFFFFFFFFFFFFFF DUP2 GT ISZERO PUSH2 0x7FD JUMPI PUSH2 0x7FD PUSH2 0x5A8 JUMP JUMPDEST PUSH2 0x811 DUP2 PUSH2 0x80B DUP5 SLOAD PUSH2 0x75A JUMP JUMPDEST DUP5 PUSH2 0x794 JUMP JUMPDEST PUSH1 0x20 DUP1 PUSH1 0x1F DUP4 GT PUSH1 0x1 DUP2 EQ PUSH2 0x846 JUMPI PUSH1 0x0 DUP5 ISZERO PUSH2 0x82E JUMPI POP DUP6 DUP4 ADD MLOAD JUMPDEST PUSH1 0x0 NOT PUSH1 0x3 DUP7 SWAP1 SHL SHR NOT AND PUSH1 0x1 DUP6 SWAP1 SHL OR DUP6 SSTORE PUSH2 0x7DA JUMP JUMPDEST PUSH1 0x0 DUP6 DUP2 MSTORE PUSH1 0x20 DUP2 KECCAK256 PUSH1 0x1F NOT DUP7 AND SWAP2 JUMPDEST DUP3 DUP2 LT ISZERO PUSH2 0x875 JUMPI DUP9 DUP7 ADD MLOAD DUP3 SSTORE SWAP5 DUP5 ADD SWAP5 PUSH1 0x1 SWAP1 SWAP2 ADD SWAP1 DUP5 ADD PUSH2 0x856 JUMP JUMPDEST POP DUP6 DUP3 LT ISZERO PUSH2 0x893 JUMPI DUP8 DUP6 ADD MLOAD PUSH1 0x0 NOT PUSH1 0x3 DUP9 SWAP1 SHL PUSH1 0xF8 AND SHR NOT AND DUP2 SSTORE JUMPDEST POP POP POP POP POP PUSH1 0x1 SWAP1 DUP2 SHL ADD SWAP1 SSTORE POP JUMP JUMPDEST DUP2 DUP2 SUB DUP2 DUP2 GT ISZERO PUSH2 0x8B6 JUMPI PUSH2 0x8B6 PUSH2 0x72B JUMP JUMPDEST SWAP3 SWAP2 POP POP JUMP INVALID LOG2 PUSH5 0x6970667358 0x22 SLT KECCAK256 0xAC MSTORE SWAP5 0x49 LOG4 BALANCE 0xB2 SWAP9 SWAP4 MUL 0xD 0xCF 0xBF 0xEC 0xE1 PUSH29 0x796E82D67CD6754139B8E444D826186864736F6C634300081100330000 "},"methodIdentifiers":{"addCandidate(string)":"462e91ec","candidates(uint256)":"3477ee2e","getAllVotesOfCandiates()":"4d6bda5f","getRemainingTime()":"efb98bcf","getVotingStatus()":"581c281c","vote(uint256)":"0121b93f","voters(address)":"a3ec138d","votingEnd()":"85a38635","votingStart()":"101158af"}}}}}